{
  "_format": "hh-sol-artifact-1",
  "contractName": "LotteryGenerator",
  "sourceName": "contracts/Lottery.sol",
  "abi": [
    {
      "constant": true,
      "inputs": [
        {
          "name": "",
          "type": "uint256"
        }
      ],
      "name": "lotteries",
      "outputs": [
        {
          "name": "",
          "type": "address"
        }
      ],
      "payable": false,
      "stateMutability": "view",
      "type": "function"
    },
    {
      "constant": false,
      "inputs": [
        {
          "name": "in_lotteryName",
          "type": "string"
        },
        {
          "name": "in_endAt",
          "type": "string"
        },
        {
          "name": "in_creatorFee",
          "type": "uint256"
        },
        {
          "name": "in_maxEntries",
          "type": "uint256"
        },
        {
          "name": "in_coinsRequired",
          "type": "uint256"
        }
      ],
      "name": "createLottery",
      "outputs": [],
      "payable": false,
      "stateMutability": "nonpayable",
      "type": "function"
    },
    {
      "constant": false,
      "inputs": [
        {
          "name": "lotteryAddress",
          "type": "address"
        }
      ],
      "name": "deleteLottery",
      "outputs": [],
      "payable": false,
      "stateMutability": "nonpayable",
      "type": "function"
    },
    {
      "constant": true,
      "inputs": [],
      "name": "getLotteries",
      "outputs": [
        {
          "name": "",
          "type": "address[]"
        }
      ],
      "payable": false,
      "stateMutability": "view",
      "type": "function"
    },
    {
      "anonymous": false,
      "inputs": [
        {
          "indexed": false,
          "name": "lotteryAddress",
          "type": "address"
        }
      ],
      "name": "LotteryCreated",
      "type": "event"
    }
  ],
  "bytecode": "0x608060405234801561001057600080fd5b506115b8806100206000396000f3006080604052600436106100485763ffffffff60e060020a6000350416631398e076811461004d578063866c469d14610081578063a7e46eac14610127578063bcc82ec414610148575b600080fd5b34801561005957600080fd5b506100656004356101ad565b60408051600160a060020a039092168252519081900360200190f35b34801561008d57600080fd5b506040805160206004803580820135601f810184900484028501840190955284845261012594369492936024939284019190819084018382808284375050604080516020601f89358b018035918201839004830284018301909452808352979a999881019791965091820194509250829150840183828082843750949750508435955050506020830135926040013591506101d59050565b005b34801561013357600080fd5b50610125600160a060020a03600435166103b6565b34801561015457600080fd5b5061015d610476565b60408051602080825283518183015283519192839290830191858101910280838360005b83811015610199578181015183820152602001610181565b505050509050019250505060405180910390f35b60008054829081106101bb57fe5b600091825260209091200154600160a060020a0316905081565b60008086511115156101e657600080fd5b3386868686866101f46104d9565b8087600160a060020a0316600160a060020a031681526020018060200180602001868152602001858152602001848152602001838103835288818151815260200191508051906020019080838360005b8381101561025c578181015183820152602001610244565b50505050905090810190601f1680156102895780820380516001836020036101000a031916815260200191505b50838103825287518152875160209182019189019080838360005b838110156102bc5781810151838201526020016102a4565b50505050905090810190601f1680156102e95780820380516001836020036101000a031916815260200191505b5098505050505050505050604051809103906000f080158015610310573d6000803e3d6000fd5b5060008054600181810183557f290decd9548b62a8d60345a988386fc84ba6bc95484008f6362f93160ef3e56382018054600160a060020a038616600160a060020a0319918216811790925581855260208381526040958690209485559390920180549092163317909155825190815291519293507fe610764cbcba803247df3450b7492f6a0084b7b5b734a7901c13fef8f84ffaf492918290030190a1505050505050565b600160a060020a03818116600090815260016020819052604082200154909182911633146103e357600080fd5b600160a060020a0383166000908152600160205260408120548154909350600019810190811061040f57fe5b60009182526020822001548154600160a060020a0390911692508291908490811061043657fe5b600091825260208220018054600160a060020a031916600160a060020a0393909316929092179091558054906104709060001983016104e9565b50505050565b606060008054806020026020016040519081016040528092919081815260200182805480156104ce57602002820191906000526020600020905b8154600160a060020a031681526001909101906020018083116104b0575b505050505090505b90565b60405161105c8061053183390190565b81548183558181111561050d5760008381526020902061050d918101908301610512565b505050565b6104d691905b8082111561052c5760008155600101610518565b50905600608060405234801561001057600080fd5b506040516200105c3803806200105c8339810160409081528151602080840151928401516060850151608086015160a087015160008054600160a060020a031916600160a060020a038816179055958701805195979096930194919390929161007f91600191908801906100a9565b5083516100939060029060208701906100a9565b5060039290925560045560055550610144915050565b828054600181600116156101000203166002900490600052602060002090601f016020900481019282601f106100ea57805160ff1916838001178555610117565b82800160010185558215610117579182015b828111156101175782518255916020019190600101906100fc565b50610123929150610127565b5090565b61014191905b80821115610123576000815560010161012d565b90565b610f0880620001546000396000f3006080604052600436106100d75763ffffffff60e060020a60003504166310c85fe5811461010457806314034bd21461012d5780631d27769f1461014257806323d141491461018e578063481c6a75146102185780635832d571146102495780635c12cd4b146102615780637cc3ae8c146103015780638002d933146103165780638b5b9ccc1461032b578063a341c7f214610390578063d29b84e2146103aa578063d68895d8146103d1578063dfbf53ae146103e6578063e88958dc14610481578063f23f3ba514610496578063f25266dd146104ab575b61010260408051908101604052806007815260200160c960020a662ab735b737bbb7028152506104c3565b005b34801561011057600080fd5b506101196106f5565b604080519115158252519081900360200190f35b34801561013957600080fd5b506101026106fe565b6040805160206004803580820135601f81018490048402850184019095528484526101029436949293602493928401919081908401838280828437509497506104c39650505050505050565b34801561019a57600080fd5b506101a3610946565b6040805160208082528351818301528351919283929083019185019080838360005b838110156101dd5781810151838201526020016101c5565b50505050905090810190601f16801561020a5780820380516001836020036101000a031916815260200191505b509250505060405180910390f35b34801561022457600080fd5b5061022d6109d3565b60408051600160a060020a039092168252519081900360200190f35b34801561025557600080fd5b5061022d6004356109e2565b34801561026d57600080fd5b50610282600160a060020a0360043516610a0a565b6040518080602001838152602001828103825284818151815260200191508051906020019080838360005b838110156102c55781810151838201526020016102ad565b50505050905090810190601f1680156102f25780820380516001836020036101000a031916815260200191505b50935050505060405180910390f35b34801561030d57600080fd5b506101a3610aeb565b34801561032257600080fd5b50610119610b43565b34801561033757600080fd5b50610340610b51565b60408051602080825283518183015283519192839290830191858101910280838360005b8381101561037c578181015183820152602001610364565b505050509050019250505060405180910390f35b34801561039c57600080fd5b506101026004351515610bb4565b3480156103b657600080fd5b506103bf610bc7565b60408051918252519081900360200190f35b3480156103dd57600080fd5b506103bf610bcd565b3480156103f257600080fd5b506103fb610bd2565b6040518080602001848152602001838152602001828103825285818151815260200191508051906020019080838360005b8381101561044457818101518382015260200161042c565b50505050905090810190601f1680156104715780820380516001836020036101000a031916815260200191505b5094505050505060405180910390f35b34801561048d57600080fd5b506103bf610c70565b3480156104a257600080fd5b506103bf610c76565b3480156104b757600080fd5b5061022d600435610c7c565b80516000106104d157600080fd5b600c5460ff1615156104e257600080fd5b600c54610100900460ff16151561051257600554670de0b6b3a7640000023414151561050d57600080fd5b610520565b600554341461052057600080fd5b600454336000908152600760205260409020600101541061054057600080fd5b61054933610c8a565b156105cd57336000908152600760209081526040909120600181810155825161057492840190610d4a565b5060068054600181019091557ff652222313e28459528d920b65115c16c04f3efc82aaedc97be59f3f377c0d3f81018054600160a060020a031916339081179091556000908152600760205260409020600201556105e9565b3360009081526007602052604090206001908101805490910190555b6008805460018181019092557ff3f7a9fe364faab93b216da50a3214154f22a0a2b415b23a84c8169e8b636ee3018054600160a060020a031916339081179091556000908152600760209081526040918290208084015483519283018190528383528154600295811615610100026000190116949094049282018390527f76041b6e8130995874e79e751d284536c37242cb014fb0584ede1d1e64ce03c993909290919081906060820190859080156106e35780601f106106b8576101008083540402835291602001916106e3565b820191906000526020600020905b8154815290600101906020018083116106c657829003601f168201915b5050935050505060405180910390a150565b600c5460ff1681565b60008054600160a060020a0316331461071657600080fd5b60085460001061072557600080fd5b600854610730610ce8565b81151561073957fe5b06905060088181548110151561074b57fe5b600091825260209091200154600354600160a060020a03909116906108fc906064908103303102049081150290604051600060405180830381858888f1935050505015801561079e573d6000803e3d6000fd5b50600054600354600160a060020a03909116906108fc90606490303102049081150290604051600060405180830381858888f193505050501580156107e7573d6000803e3d6000fd5b50600760006008838154811015156107fb57fe5b6000918252602080832090910154600160a060020a03168352820192909252604001902080546108409160099160026000196001831615610100020190911604610dc8565b506007600060088381548110151561085457fe5b600091825260208083209190910154600160a060020a03168352828101939093526040918201812060010154600a55815190815291820190819052905161089d91600891610e3d565b5060408051600081526020810191829052516108bb91600691610e3d565b50600c805460ff19169055600a54604080516020810183905281815260098054600260001960018316156101000201909116049282018390527fd6d1eeba639254bd05e36261ae299af245328ab997fd9b7823d5fff17f1b74a493909290919081906060820190859080156106e35780601f106106b8576101008083540402835291602001916106e3565b60018054604080516020600284861615610100026000190190941693909304601f810184900484028201840190925281815292918301828280156109cb5780601f106109a0576101008083540402835291602001916109cb565b820191906000526020600020905b8154815290600101906020018083116109ae57829003601f168201915b505050505081565b600054600160a060020a031681565b60068054829081106109f057fe5b600091825260209091200154600160a060020a0316905081565b60606000610a1783610c8a565b15610a3357505060408051602081019091526000808252610ae6565b600160a060020a03831660009081526007602090815260409182902060018082015482548551600293821615610100026000190190911692909204601f81018590048502830185019095528482529193919290918491830182828015610ada5780601f10610aaf57610100808354040283529160200191610ada565b820191906000526020600020905b815481529060010190602001808311610abd57829003601f168201915b50505050509150915091505b915091565b6002805460408051602060018416156101000260001901909316849004601f810184900484028201840190925281815292918301828280156109cb5780601f106109a0576101008083540402835291602001916109cb565b600c54610100900460ff1681565b60606006805480602002602001604051908101604052809291908181526020018280548015610ba957602002820191906000526020600020905b8154600160a060020a03168152600190910190602001808311610b8b575b505050505090505b90565b600c805460ff1916911515919091179055565b60055481565b303190565b60098054604080516020601f60026000196101006001881615020190951694909404938401819004810282018101909252828152918391830182828015610c5a5780601f10610c2f57610100808354040283529160200191610c5a565b820191906000526020600020905b815481529060010190602001808311610c3d57829003601f168201915b5050505050908060010154908060020154905083565b60035481565b60045481565b60088054829081106109f057fe5b6006546000901515610c9e57506001610ce3565b600160a060020a038216600081815260076020526040902060020154600680549091908110610cc957fe5b600091825260209091200154600160a060020a0316141590505b919050565b600044426008604051808481526020018381526020018280548015610d3657602002820191906000526020600020905b8154600160a060020a03168152600190910190602001808311610d18575b505060405190819003902094505050505090565b828054600181600116156101000203166002900490600052602060002090601f016020900481019282601f10610d8b57805160ff1916838001178555610db8565b82800160010185558215610db8579182015b82811115610db8578251825591602001919060010190610d9d565b50610dc4929150610e9e565b5090565b828054600181600116156101000203166002900490600052602060002090601f016020900481019282601f10610e015780548555610db8565b82800160010185558215610db857600052602060002091601f016020900482015b82811115610db8578254825591600101919060010190610e22565b828054828255906000526020600020908101928215610e92579160200282015b82811115610e925782518254600160a060020a031916600160a060020a03909116178255602090920191600190910190610e5d565b50610dc4929150610eb8565b610bb191905b80821115610dc45760008155600101610ea4565b610bb191905b80821115610dc4578054600160a060020a0319168155600101610ebe5600a165627a7a72305820109d5273832333123e958b1027e655d977e600023d6a7357808b3217040a5a110029a165627a7a723058204b3497462a81571cfc054b59ba123d90977dfdb8f1a5956875f39a649a32b36a0029",
  "linkReferences": {},
  "deployedLinkReferences": {}
}