{
  "_format": "hh-sol-artifact-1",
  "contractName": "Lottery",
  "sourceName": "contracts/Lottery.sol",
  "abi": [
    {
      "constant": true,
      "inputs": [],
      "name": "isLotteryLive",
      "outputs": [
        {
          "name": "",
          "type": "bool"
        }
      ],
      "payable": false,
      "stateMutability": "view",
      "type": "function"
    },
    {
      "constant": false,
      "inputs": [],
      "name": "declareWinner",
      "outputs": [],
      "payable": false,
      "stateMutability": "nonpayable",
      "type": "function"
    },
    {
      "constant": false,
      "inputs": [
        {
          "name": "playerName",
          "type": "string"
        }
      ],
      "name": "participate",
      "outputs": [],
      "payable": true,
      "stateMutability": "payable",
      "type": "function"
    },
    {
      "constant": true,
      "inputs": [],
      "name": "lotteryName",
      "outputs": [
        {
          "name": "",
          "type": "string"
        }
      ],
      "payable": false,
      "stateMutability": "view",
      "type": "function"
    },
    {
      "constant": true,
      "inputs": [],
      "name": "manager",
      "outputs": [
        {
          "name": "",
          "type": "address"
        }
      ],
      "payable": false,
      "stateMutability": "view",
      "type": "function"
    },
    {
      "constant": true,
      "inputs": [
        {
          "name": "",
          "type": "uint256"
        }
      ],
      "name": "addressIndexes",
      "outputs": [
        {
          "name": "",
          "type": "address"
        }
      ],
      "payable": false,
      "stateMutability": "view",
      "type": "function"
    },
    {
      "constant": true,
      "inputs": [
        {
          "name": "playerAddress",
          "type": "address"
        }
      ],
      "name": "getPlayer",
      "outputs": [
        {
          "name": "",
          "type": "string"
        },
        {
          "name": "",
          "type": "uint256"
        }
      ],
      "payable": false,
      "stateMutability": "view",
      "type": "function"
    },
    {
      "constant": true,
      "inputs": [],
      "name": "endAt",
      "outputs": [
        {
          "name": "",
          "type": "string"
        }
      ],
      "payable": false,
      "stateMutability": "view",
      "type": "function"
    },
    {
      "constant": true,
      "inputs": [],
      "name": "getPlayers",
      "outputs": [
        {
          "name": "",
          "type": "address[]"
        }
      ],
      "payable": false,
      "stateMutability": "view",
      "type": "function"
    },
    {
      "constant": false,
      "inputs": [
        {
          "name": "status",
          "type": "bool"
        }
      ],
      "name": "setLotteryStatus",
      "outputs": [],
      "payable": false,
      "stateMutability": "nonpayable",
      "type": "function"
    },
    {
      "constant": true,
      "inputs": [],
      "name": "coinsRequired",
      "outputs": [
        {
          "name": "",
          "type": "uint256"
        }
      ],
      "payable": false,
      "stateMutability": "view",
      "type": "function"
    },
    {
      "constant": true,
      "inputs": [],
      "name": "getWinningPrice",
      "outputs": [
        {
          "name": "",
          "type": "uint256"
        }
      ],
      "payable": false,
      "stateMutability": "view",
      "type": "function"
    },
    {
      "constant": true,
      "inputs": [],
      "name": "winner",
      "outputs": [
        {
          "name": "name",
          "type": "string"
        },
        {
          "name": "entryCount",
          "type": "uint256"
        },
        {
          "name": "index",
          "type": "uint256"
        }
      ],
      "payable": false,
      "stateMutability": "view",
      "type": "function"
    },
    {
      "constant": true,
      "inputs": [],
      "name": "creatorFee",
      "outputs": [
        {
          "name": "",
          "type": "uint256"
        }
      ],
      "payable": false,
      "stateMutability": "view",
      "type": "function"
    },
    {
      "constant": true,
      "inputs": [
        {
          "name": "",
          "type": "uint256"
        }
      ],
      "name": "lotteryBag",
      "outputs": [
        {
          "name": "",
          "type": "address"
        }
      ],
      "payable": false,
      "stateMutability": "view",
      "type": "function"
    },
    {
      "inputs": [
        {
          "name": "in_manager",
          "type": "address"
        },
        {
          "name": "in_lotteryName",
          "type": "string"
        },
        {
          "name": "in_endAt",
          "type": "string"
        },
        {
          "name": "in_creatorFee",
          "type": "uint256"
        },
        {
          "name": "in_coinsRequired",
          "type": "uint256"
        }
      ],
      "payable": false,
      "stateMutability": "nonpayable",
      "type": "constructor"
    },
    {
      "payable": true,
      "stateMutability": "payable",
      "type": "fallback"
    },
    {
      "anonymous": false,
      "inputs": [
        {
          "indexed": false,
          "name": "name",
          "type": "string"
        },
        {
          "indexed": false,
          "name": "entryCount",
          "type": "uint256"
        }
      ],
      "name": "WinnerDeclared",
      "type": "event"
    },
    {
      "anonymous": false,
      "inputs": [
        {
          "indexed": false,
          "name": "name",
          "type": "string"
        },
        {
          "indexed": false,
          "name": "entryCount",
          "type": "uint256"
        }
      ],
      "name": "PlayerParticipated",
      "type": "event"
    }
  ],
  "bytecode": "0x608060405234801561001057600080fd5b5060405162000fdb38038062000fdb8339810160409081528151602080840151928401516060850151608086015160008054600160a060020a031916600160a060020a0387161790559486018051949690959201939092610076916001918701906100a9565b50825161008a9060029060208601906100a9565b506003919091556004555050600b805460ff1916600117905550610144565b828054600181600116156101000203166002900490600052602060002090601f016020900481019282601f106100ea57805160ff1916838001178555610117565b82800160010185558215610117579182015b828111156101175782518255916020019190600101906100fc565b50610123929150610127565b5090565b61014191905b80821115610123576000815560010161012d565b90565b610e8780620001546000396000f3006080604052600436106100c15763ffffffff60e060020a60003504166310c85fe581146100ee57806314034bd2146101175780631d27769f1461012c57806323d1414914610178578063481c6a75146102025780635832d571146102335780635c12cd4b1461024b5780637cc3ae8c146102eb5780638b5b9ccc14610300578063a341c7f214610365578063d29b84e21461037f578063d68895d8146103a6578063dfbf53ae146103bb578063e88958dc14610456578063f25266dd1461046b575b6100ec60408051908101604052806007815260200160c960020a662ab735b737bbb702815250610483565b005b3480156100fa57600080fd5b50610103610671565b604080519115158252519081900360200190f35b34801561012357600080fd5b506100ec61067a565b6040805160206004803580820135601f81018490048402850184019095528484526100ec9436949293602493928401919081908401838280828437509497506104839650505050505050565b34801561018457600080fd5b5061018d6108c2565b6040805160208082528351818301528351919283929083019185019080838360005b838110156101c75781810151838201526020016101af565b50505050905090810190601f1680156101f45780820380516001836020036101000a031916815260200191505b509250505060405180910390f35b34801561020e57600080fd5b5061021761094f565b60408051600160a060020a039092168252519081900360200190f35b34801561023f57600080fd5b5061021760043561095e565b34801561025757600080fd5b5061026c600160a060020a0360043516610986565b6040518080602001838152602001828103825284818151815260200191508051906020019080838360005b838110156102af578181015183820152602001610297565b50505050905090810190601f1680156102dc5780820380516001836020036101000a031916815260200191505b50935050505060405180910390f35b3480156102f757600080fd5b5061018d610a67565b34801561030c57600080fd5b50610315610abf565b60408051602080825283518183015283519192839290830191858101910280838360005b83811015610351578181015183820152602001610339565b505050509050019250505060405180910390f35b34801561037157600080fd5b506100ec6004351515610b22565b34801561038b57600080fd5b50610394610b4c565b60408051918252519081900360200190f35b3480156103b257600080fd5b50610394610b52565b3480156103c757600080fd5b506103d0610b57565b6040518080602001848152602001838152602001828103825285818151815260200191508051906020019080838360005b83811015610419578181015183820152602001610401565b50505050905090810190601f1680156104465780820380516001836020036101000a031916815260200191505b5094505050505060405180910390f35b34801561046257600080fd5b50610394610bf5565b34801561047757600080fd5b50610217600435610bfb565b805160001061049157600080fd5b600b5460ff1615156104a257600080fd5b600454670de0b6b3a764000002341415156104bc57600080fd5b6104c533610c09565b156105495733600090815260066020908152604090912060018181015582516104f092840190610cc9565b5060058054600181019091557f036b6384b5eca791c62761152d0c79bb0604c104a5fb6f4eb0703f3154bb3db081018054600160a060020a03191633908117909155600090815260066020526040902060020155610565565b3360009081526006602052604090206001908101805490910190555b6007805460018181019092557fa66cc928b5edb82af9bd49922954155ab7b0942694bea4ce44661d9a8736c688018054600160a060020a031916339081179091556000908152600660209081526040918290208084015483519283018190528383528154600295811615610100026000190116949094049282018390527f76041b6e8130995874e79e751d284536c37242cb014fb0584ede1d1e64ce03c9939092909190819060608201908590801561065f5780601f106106345761010080835404028352916020019161065f565b820191906000526020600020905b81548152906001019060200180831161064257829003601f168201915b5050935050505060405180910390a150565b600b5460ff1681565b60008054600160a060020a0316331461069257600080fd5b6007546000106106a157600080fd5b6007546106ac610c67565b8115156106b557fe5b0690506007818154811015156106c757fe5b600091825260209091200154600354600160a060020a03909116906108fc906064908103303102049081150290604051600060405180830381858888f1935050505015801561071a573d6000803e3d6000fd5b50600054600354600160a060020a03909116906108fc90606490303102049081150290604051600060405180830381858888f19350505050158015610763573d6000803e3d6000fd5b506006600060078381548110151561077757fe5b6000918252602080832090910154600160a060020a03168352820192909252604001902080546107bc9160089160026000196001831615610100020190911604610d47565b50600660006007838154811015156107d057fe5b600091825260208083209190910154600160a060020a03168352828101939093526040918201812060010154600955815190815291820190819052905161081991600791610dbc565b50604080516000815260208101918290525161083791600591610dbc565b50600b805460ff19169055600954604080516020810183905281815260088054600260001960018316156101000201909116049282018390527fd6d1eeba639254bd05e36261ae299af245328ab997fd9b7823d5fff17f1b74a4939092909190819060608201908590801561065f5780601f106106345761010080835404028352916020019161065f565b60018054604080516020600284861615610100026000190190941693909304601f810184900484028201840190925281815292918301828280156109475780601f1061091c57610100808354040283529160200191610947565b820191906000526020600020905b81548152906001019060200180831161092a57829003601f168201915b505050505081565b600054600160a060020a031681565b600580548290811061096c57fe5b600091825260209091200154600160a060020a0316905081565b6060600061099383610c09565b156109af57505060408051602081019091526000808252610a62565b600160a060020a03831660009081526006602090815260409182902060018082015482548551600293821615610100026000190190911692909204601f81018590048502830185019095528482529193919290918491830182828015610a565780601f10610a2b57610100808354040283529160200191610a56565b820191906000526020600020905b815481529060010190602001808311610a3957829003601f168201915b50505050509150915091505b915091565b6002805460408051602060018416156101000260001901909316849004601f810184900484028201840190925281815292918301828280156109475780601f1061091c57610100808354040283529160200191610947565b60606005805480602002602001604051908101604052809291908181526020018280548015610b1757602002820191906000526020600020905b8154600160a060020a03168152600190910190602001808311610af9575b505050505090505b90565b600054600160a060020a03163314610b3957600080fd5b600b805460ff1916911515919091179055565b60045481565b303190565b60088054604080516020601f60026000196101006001881615020190951694909404938401819004810282018101909252828152918391830182828015610bdf5780601f10610bb457610100808354040283529160200191610bdf565b820191906000526020600020905b815481529060010190602001808311610bc257829003601f168201915b5050505050908060010154908060020154905083565b60035481565b600780548290811061096c57fe5b6005546000901515610c1d57506001610c62565b600160a060020a038216600081815260066020526040902060020154600580549091908110610c4857fe5b600091825260209091200154600160a060020a0316141590505b919050565b600044426007604051808481526020018381526020018280548015610cb557602002820191906000526020600020905b8154600160a060020a03168152600190910190602001808311610c97575b505060405190819003902094505050505090565b828054600181600116156101000203166002900490600052602060002090601f016020900481019282601f10610d0a57805160ff1916838001178555610d37565b82800160010185558215610d37579182015b82811115610d37578251825591602001919060010190610d1c565b50610d43929150610e1d565b5090565b828054600181600116156101000203166002900490600052602060002090601f016020900481019282601f10610d805780548555610d37565b82800160010185558215610d3757600052602060002091601f016020900482015b82811115610d37578254825591600101919060010190610da1565b828054828255906000526020600020908101928215610e11579160200282015b82811115610e115782518254600160a060020a031916600160a060020a03909116178255602090920191600190910190610ddc565b50610d43929150610e37565b610b1f91905b80821115610d435760008155600101610e23565b610b1f91905b80821115610d43578054600160a060020a0319168155600101610e3d5600a165627a7a723058203c5462ea8a86b00fac2f2c9259cb2b42ada0132ec36b30ac0b7cdea77a6061180029",
  "linkReferences": {},
  "deployedLinkReferences": {}
}