{
  "_format": "hh-sol-artifact-1",
  "contractName": "Lottery",
  "sourceName": "contracts/Lottery.sol",
  "abi": [
    {
      "constant": true,
      "inputs": [],
      "name": "isLotteryLive",
      "outputs": [
        {
          "name": "",
          "type": "bool"
        }
      ],
      "payable": false,
      "stateMutability": "view",
      "type": "function"
    },
    {
      "constant": false,
      "inputs": [],
      "name": "declareWinner",
      "outputs": [],
      "payable": false,
      "stateMutability": "nonpayable",
      "type": "function"
    },
    {
      "constant": false,
      "inputs": [
        {
          "name": "playerName",
          "type": "string"
        }
      ],
      "name": "participate",
      "outputs": [],
      "payable": true,
      "stateMutability": "payable",
      "type": "function"
    },
    {
      "constant": true,
      "inputs": [],
      "name": "lotteryName",
      "outputs": [
        {
          "name": "",
          "type": "string"
        }
      ],
      "payable": false,
      "stateMutability": "view",
      "type": "function"
    },
    {
      "constant": true,
      "inputs": [],
      "name": "manager",
      "outputs": [
        {
          "name": "",
          "type": "address"
        }
      ],
      "payable": false,
      "stateMutability": "view",
      "type": "function"
    },
    {
      "constant": true,
      "inputs": [
        {
          "name": "",
          "type": "uint256"
        }
      ],
      "name": "addressIndexes",
      "outputs": [
        {
          "name": "",
          "type": "address"
        }
      ],
      "payable": false,
      "stateMutability": "view",
      "type": "function"
    },
    {
      "constant": true,
      "inputs": [
        {
          "name": "playerAddress",
          "type": "address"
        }
      ],
      "name": "getPlayer",
      "outputs": [
        {
          "name": "",
          "type": "string"
        },
        {
          "name": "",
          "type": "uint256"
        }
      ],
      "payable": false,
      "stateMutability": "view",
      "type": "function"
    },
    {
      "constant": true,
      "inputs": [],
      "name": "endAt",
      "outputs": [
        {
          "name": "",
          "type": "string"
        }
      ],
      "payable": false,
      "stateMutability": "view",
      "type": "function"
    },
    {
      "constant": true,
      "inputs": [],
      "name": "getPlayers",
      "outputs": [
        {
          "name": "",
          "type": "address[]"
        }
      ],
      "payable": false,
      "stateMutability": "view",
      "type": "function"
    },
    {
      "constant": false,
      "inputs": [
        {
          "name": "status",
          "type": "bool"
        }
      ],
      "name": "setLotteryStatus",
      "outputs": [],
      "payable": false,
      "stateMutability": "nonpayable",
      "type": "function"
    },
    {
      "constant": true,
      "inputs": [],
      "name": "createdAt",
      "outputs": [
        {
          "name": "",
          "type": "string"
        }
      ],
      "payable": false,
      "stateMutability": "view",
      "type": "function"
    },
    {
      "constant": true,
      "inputs": [],
      "name": "coinsRequired",
      "outputs": [
        {
          "name": "",
          "type": "uint256"
        }
      ],
      "payable": false,
      "stateMutability": "view",
      "type": "function"
    },
    {
      "constant": true,
      "inputs": [],
      "name": "getWinningPrice",
      "outputs": [
        {
          "name": "",
          "type": "uint256"
        }
      ],
      "payable": false,
      "stateMutability": "view",
      "type": "function"
    },
    {
      "constant": true,
      "inputs": [],
      "name": "winner",
      "outputs": [
        {
          "name": "name",
          "type": "string"
        },
        {
          "name": "entryCount",
          "type": "uint256"
        },
        {
          "name": "index",
          "type": "uint256"
        }
      ],
      "payable": false,
      "stateMutability": "view",
      "type": "function"
    },
    {
      "constant": true,
      "inputs": [],
      "name": "creatorFee",
      "outputs": [
        {
          "name": "",
          "type": "uint256"
        }
      ],
      "payable": false,
      "stateMutability": "view",
      "type": "function"
    },
    {
      "constant": true,
      "inputs": [
        {
          "name": "",
          "type": "uint256"
        }
      ],
      "name": "lotteryBag",
      "outputs": [
        {
          "name": "",
          "type": "address"
        }
      ],
      "payable": false,
      "stateMutability": "view",
      "type": "function"
    },
    {
      "inputs": [
        {
          "name": "in_manager",
          "type": "address"
        },
        {
          "name": "in_lotteryName",
          "type": "string"
        },
        {
          "name": "in_createdAt",
          "type": "string"
        },
        {
          "name": "in_endAt",
          "type": "string"
        },
        {
          "name": "in_creatorFee",
          "type": "uint256"
        },
        {
          "name": "in_coinsRequired",
          "type": "uint256"
        }
      ],
      "payable": false,
      "stateMutability": "nonpayable",
      "type": "constructor"
    },
    {
      "payable": true,
      "stateMutability": "payable",
      "type": "fallback"
    },
    {
      "anonymous": false,
      "inputs": [
        {
          "indexed": false,
          "name": "name",
          "type": "string"
        },
        {
          "indexed": false,
          "name": "entryCount",
          "type": "uint256"
        }
      ],
      "name": "WinnerDeclared",
      "type": "event"
    },
    {
      "anonymous": false,
      "inputs": [
        {
          "indexed": false,
          "name": "name",
          "type": "string"
        },
        {
          "indexed": false,
          "name": "entryCount",
          "type": "uint256"
        }
      ],
      "name": "PlayerParticipated",
      "type": "event"
    }
  ],
  "bytecode": "0x60806040523480156200001157600080fd5b506040516200106f3803806200106f8339810160409081528151602080840151928401516060850151608086015160a087015160008054600160a060020a031916600160a060020a03881617905595870180519597909693810195920193909291620000849160019190880190620000d2565b5083516200009a906002906020870190620000d2565b508251620000b0906003906020860190620000d2565b506004919091556005555050600c805460ff1916600117905550620001779050565b828054600181600116156101000203166002900490600052602060002090601f016020900481019282601f106200011557805160ff191683800117855562000145565b8280016001018555821562000145579182015b828111156200014557825182559160200191906001019062000128565b506200015392915062000157565b5090565b6200017491905b808211156200015357600081556001016200015e565b90565b610ee880620001876000396000f3006080604052600436106100cc5763ffffffff60e060020a60003504166310c85fe581146100f957806314034bd2146101225780631d27769f1461013757806323d1414914610183578063481c6a751461020d5780635832d5711461023e5780635c12cd4b146102565780637cc3ae8c146102f65780638b5b9ccc1461030b578063a341c7f214610370578063cf09e0d01461038a578063d29b84e21461039f578063d68895d8146103c6578063dfbf53ae146103db578063e88958dc14610476578063f25266dd1461048b575b6100f760408051908101604052806007815260200160c960020a662ab735b737bbb7028152506104a3565b005b34801561010557600080fd5b5061010e610677565b604080519115158252519081900360200190f35b34801561012e57600080fd5b506100f7610680565b6040805160206004803580820135601f81018490048402850184019095528484526100f79436949293602493928401919081908401838280828437509497506104a39650505050505050565b34801561018f57600080fd5b506101986108c8565b6040805160208082528351818301528351919283929083019185019080838360005b838110156101d25781810151838201526020016101ba565b50505050905090810190601f1680156101ff5780820380516001836020036101000a031916815260200191505b509250505060405180910390f35b34801561021957600080fd5b50610222610955565b60408051600160a060020a039092168252519081900360200190f35b34801561024a57600080fd5b50610222600435610964565b34801561026257600080fd5b50610277600160a060020a036004351661098c565b6040518080602001838152602001828103825284818151815260200191508051906020019080838360005b838110156102ba5781810151838201526020016102a2565b50505050905090810190601f1680156102e75780820380516001836020036101000a031916815260200191505b50935050505060405180910390f35b34801561030257600080fd5b50610198610a6d565b34801561031757600080fd5b50610320610ac8565b60408051602080825283518183015283519192839290830191858101910280838360005b8381101561035c578181015183820152602001610344565b505050509050019250505060405180910390f35b34801561037c57600080fd5b506100f76004351515610b2b565b34801561039657600080fd5b50610198610b55565b3480156103ab57600080fd5b506103b4610bad565b60408051918252519081900360200190f35b3480156103d257600080fd5b506103b4610bb3565b3480156103e757600080fd5b506103f0610bb8565b6040518080602001848152602001838152602001828103825285818151815260200191508051906020019080838360005b83811015610439578181015183820152602001610421565b50505050905090810190601f1680156104665780820380516001836020036101000a031916815260200191505b5094505050505060405180910390f35b34801561048257600080fd5b506103b4610c56565b34801561049757600080fd5b50610222600435610c5c565b80516000106104b157600080fd5b600c5460ff1615156104c257600080fd5b6104cb33610c6a565b1561054f5733600090815260076020908152604090912060018181015582516104f692840190610d2a565b5060068054600181019091557ff652222313e28459528d920b65115c16c04f3efc82aaedc97be59f3f377c0d3f81018054600160a060020a0319163390811790915560009081526007602052604090206002015561056b565b3360009081526007602052604090206001908101805490910190555b6008805460018181019092557ff3f7a9fe364faab93b216da50a3214154f22a0a2b415b23a84c8169e8b636ee3018054600160a060020a031916339081179091556000908152600760209081526040918290208084015483519283018190528383528154600295811615610100026000190116949094049282018390527f76041b6e8130995874e79e751d284536c37242cb014fb0584ede1d1e64ce03c993909290919081906060820190859080156106655780601f1061063a57610100808354040283529160200191610665565b820191906000526020600020905b81548152906001019060200180831161064857829003601f168201915b5050935050505060405180910390a150565b600c5460ff1681565b60008054600160a060020a0316331461069857600080fd5b6008546000106106a757600080fd5b6008546106b2610cc8565b8115156106bb57fe5b0690506008818154811015156106cd57fe5b600091825260209091200154600454600160a060020a03909116906108fc906064908103303102049081150290604051600060405180830381858888f19350505050158015610720573d6000803e3d6000fd5b50600054600454600160a060020a03909116906108fc90606490303102049081150290604051600060405180830381858888f19350505050158015610769573d6000803e3d6000fd5b506007600060088381548110151561077d57fe5b6000918252602080832090910154600160a060020a03168352820192909252604001902080546107c29160099160026000196001831615610100020190911604610da8565b50600760006008838154811015156107d657fe5b600091825260208083209190910154600160a060020a03168352828101939093526040918201812060010154600a55815190815291820190819052905161081f91600891610e1d565b50604080516000815260208101918290525161083d91600691610e1d565b50600c805460ff19169055600a54604080516020810183905281815260098054600260001960018316156101000201909116049282018390527fd6d1eeba639254bd05e36261ae299af245328ab997fd9b7823d5fff17f1b74a493909290919081906060820190859080156106655780601f1061063a57610100808354040283529160200191610665565b60018054604080516020600284861615610100026000190190941693909304601f8101849004840282018401909252818152929183018282801561094d5780601f106109225761010080835404028352916020019161094d565b820191906000526020600020905b81548152906001019060200180831161093057829003601f168201915b505050505081565b600054600160a060020a031681565b600680548290811061097257fe5b600091825260209091200154600160a060020a0316905081565b6060600061099983610c6a565b156109b557505060408051602081019091526000808252610a68565b600160a060020a03831660009081526007602090815260409182902060018082015482548551600293821615610100026000190190911692909204601f81018590048502830185019095528482529193919290918491830182828015610a5c5780601f10610a3157610100808354040283529160200191610a5c565b820191906000526020600020905b815481529060010190602001808311610a3f57829003601f168201915b50505050509150915091505b915091565b6003805460408051602060026001851615610100026000190190941693909304601f8101849004840282018401909252818152929183018282801561094d5780601f106109225761010080835404028352916020019161094d565b60606006805480602002602001604051908101604052809291908181526020018280548015610b2057602002820191906000526020600020905b8154600160a060020a03168152600190910190602001808311610b02575b505050505090505b90565b600054600160a060020a03163314610b4257600080fd5b600c805460ff1916911515919091179055565b6002805460408051602060018416156101000260001901909316849004601f8101849004840282018401909252818152929183018282801561094d5780601f106109225761010080835404028352916020019161094d565b60055481565b303190565b60098054604080516020601f60026000196101006001881615020190951694909404938401819004810282018101909252828152918391830182828015610c405780601f10610c1557610100808354040283529160200191610c40565b820191906000526020600020905b815481529060010190602001808311610c2357829003601f168201915b5050505050908060010154908060020154905083565b60045481565b600880548290811061097257fe5b6006546000901515610c7e57506001610cc3565b600160a060020a038216600081815260076020526040902060020154600680549091908110610ca957fe5b600091825260209091200154600160a060020a0316141590505b919050565b600044426008604051808481526020018381526020018280548015610d1657602002820191906000526020600020905b8154600160a060020a03168152600190910190602001808311610cf8575b505060405190819003902094505050505090565b828054600181600116156101000203166002900490600052602060002090601f016020900481019282601f10610d6b57805160ff1916838001178555610d98565b82800160010185558215610d98579182015b82811115610d98578251825591602001919060010190610d7d565b50610da4929150610e7e565b5090565b828054600181600116156101000203166002900490600052602060002090601f016020900481019282601f10610de15780548555610d98565b82800160010185558215610d9857600052602060002091601f016020900482015b82811115610d98578254825591600101919060010190610e02565b828054828255906000526020600020908101928215610e72579160200282015b82811115610e725782518254600160a060020a031916600160a060020a03909116178255602090920191600190910190610e3d565b50610da4929150610e98565b610b2891905b80821115610da45760008155600101610e84565b610b2891905b80821115610da4578054600160a060020a0319168155600101610e9e5600a165627a7a723058202756827c34329ab17d6292aab483c0126d25e8e400b03b795aa234c66bf3e1ca0029",
  "linkReferences": {},
  "deployedLinkReferences": {}
}