{
  "_format": "hh-sol-artifact-1",
  "contractName": "LotteryGenerator",
  "sourceName": "contracts/Lottery.sol",
  "abi": [
    {
      "constant": true,
      "inputs": [
        {
          "name": "",
          "type": "uint256"
        }
      ],
      "name": "lotteries",
      "outputs": [
        {
          "name": "",
          "type": "address"
        }
      ],
      "payable": false,
      "stateMutability": "view",
      "type": "function"
    },
    {
      "constant": false,
      "inputs": [
        {
          "name": "name",
          "type": "string"
        },
        {
          "name": "endAt",
          "type": "string"
        },
        {
          "name": "creatorFee",
          "type": "uint256"
        }
      ],
      "name": "createLottery",
      "outputs": [],
      "payable": false,
      "stateMutability": "nonpayable",
      "type": "function"
    },
    {
      "constant": false,
      "inputs": [
        {
          "name": "lotteryAddress",
          "type": "address"
        }
      ],
      "name": "deleteLottery",
      "outputs": [],
      "payable": false,
      "stateMutability": "nonpayable",
      "type": "function"
    },
    {
      "constant": true,
      "inputs": [],
      "name": "getLotteries",
      "outputs": [
        {
          "name": "",
          "type": "address[]"
        }
      ],
      "payable": false,
      "stateMutability": "view",
      "type": "function"
    },
    {
      "anonymous": false,
      "inputs": [
        {
          "indexed": false,
          "name": "lotteryAddress",
          "type": "address"
        }
      ],
      "name": "LotteryCreated",
      "type": "event"
    }
  ],
  "bytecode": "0x608060405234801561001057600080fd5b5061161b806100206000396000f3006080604052600436106100485763ffffffff60e060020a6000350416631398e076811461004d57806315ecc58614610081578063a7e46eac1461011c578063bcc82ec41461013d575b600080fd5b34801561005957600080fd5b506100656004356101a2565b60408051600160a060020a039092168252519081900360200190f35b34801561008d57600080fd5b506040805160206004803580820135601f810184900484028501840190955284845261011a94369492936024939284019190819084018382808284375050604080516020601f89358b018035918201839004830284018301909452808352979a99988101979196509182019450925082915084018382808284375094975050933594506101ca9350505050565b005b34801561012857600080fd5b5061011a600160a060020a03600435166103ce565b34801561014957600080fd5b5061015261048e565b60408051602080825283518183015283519192839290830191858101910280838360005b8381101561018e578181015183820152602001610176565b505050509050019250505060405180910390f35b60008054829081106101b057fe5b600091825260209091200154600160a060020a0316905081565b60008084511115156101db57600080fd5b833384846101e76104f1565b808060200185600160a060020a0316600160a060020a0316815260200180602001848152602001838103835287818151815260200191508051906020019080838360005b8381101561024357818101518382015260200161022b565b50505050905090810190601f1680156102705780820380516001836020036101000a031916815260200191505b50838103825285518152855160209182019187019080838360005b838110156102a357818101518382015260200161028b565b50505050905090810190601f1680156102d05780820380516001836020036101000a031916815260200191505b509650505050505050604051809103906000f0801580156102f5573d6000803e3d6000fd5b5060008054600181810183557f290decd9548b62a8d60345a988386fc84ba6bc95484008f6362f93160ef3e56382018054600160a060020a038616600160a060020a0319918216811790925590845260208281526040909420928355908201805490911633179055855192935061037492600290910191860190610501565b50600160a060020a038116600081815260016020908152604091829020600301859055815192835290517fe610764cbcba803247df3450b7492f6a0084b7b5b734a7901c13fef8f84ffaf49281900390910190a150505050565b600160a060020a03818116600090815260016020819052604082200154909182911633146103fb57600080fd5b600160a060020a0383166000908152600160205260408120548154909350600019810190811061042757fe5b60009182526020822001548154600160a060020a0390911692508291908490811061044e57fe5b600091825260208220018054600160a060020a031916600160a060020a03939093169290921790915580549061048890600019830161057f565b50505050565b606060008054806020026020016040519081016040528092919081815260200182805480156104e657602002820191906000526020600020905b8154600160a060020a031681526001909101906020018083116104c8575b505050505090505b90565b60405161102d806105c383390190565b828054600181600116156101000203166002900490600052602060002090601f016020900481019282601f1061054257805160ff191683800117855561056f565b8280016001018555821561056f579182015b8281111561056f578251825591602001919060010190610554565b5061057b9291506105a8565b5090565b8154818355818111156105a3576000838152602090206105a39181019083016105a8565b505050565b6104ee91905b8082111561057b57600081556001016105ae5600608060405234801561001057600080fd5b506040516200102d3803806200102d833981016040908152815160208084015192840151606085015160018054600160a060020a031916600160a060020a0387161790559285018051909591909101929161007091600091870190610091565b508151610084906002906020850190610091565b506003555061012c915050565b828054600181600116156101000203166002900490600052602060002090601f016020900481019282601f106100d257805160ff19168380011785556100ff565b828001600101855582156100ff579182015b828111156100ff5782518255916020019190600101906100e4565b5061010b92915061010f565b5090565b61012991905b8082111561010b5760008155600101610115565b90565b610ef1806200013c6000396000f3006080604052600436106100cc5763ffffffff60e060020a60003504166310c85fe581146100f957806314034bd2146101225780631d27769f1461013757806323d141491461018357806329dcb0cf1461020d578063481c6a75146102225780635832d571146102535780635c12cd4b1461026b5780635d58a74a1461030b5780637752045b146103325780638b5b9ccc14610347578063bdaea326146103ac578063d68895d8146103c7578063ddca3f43146103dc578063dfbf53ae146103f1578063f25266dd1461048c575b6100f760408051908101604052806007815260200160c960020a662ab735b737bbb7028152506104a4565b005b34801561010557600080fd5b5061010e6106b2565b604080519115158252519081900360200190f35b34801561012e57600080fd5b506100f76106bb565b6040805160206004803580820135601f81018490048402850184019095528484526100f79436949293602493928401919081908401838280828437509497506104a49650505050505050565b34801561018f57600080fd5b50610198610903565b6040805160208082528351818301528351919283929083019185019080838360005b838110156101d25781810151838201526020016101ba565b50505050905090810190601f1680156101ff5780820380516001836020036101000a031916815260200191505b509250505060405180910390f35b34801561021957600080fd5b50610198610991565b34801561022e57600080fd5b506102376109e9565b60408051600160a060020a039092168252519081900360200190f35b34801561025f57600080fd5b506102376004356109f8565b34801561027757600080fd5b5061028c600160a060020a0360043516610a20565b6040518080602001838152602001828103825284818151815260200191508051906020019080838360005b838110156102cf5781810151838201526020016102b7565b50505050905090810190601f1680156102fc5780820380516001836020036101000a031916815260200191505b50935050505060405180910390f35b34801561031757600080fd5b50610320610b01565b60408051918252519081900360200190f35b34801561033e57600080fd5b50610320610b07565b34801561035357600080fd5b5061035c610b0d565b60408051602080825283518183015283519192839290830191858101910280838360005b83811015610398578181015183820152602001610380565b505050509050019250505060405180910390f35b3480156103b857600080fd5b506100f7600435602435610b70565b3480156103d357600080fd5b50610320610bbc565b3480156103e857600080fd5b50610320610bc1565b3480156103fd57600080fd5b50610406610bc7565b6040518080602001848152602001838152602001828103825285818151815260200191508051906020019080838360005b8381101561044f578181015183820152602001610437565b50505050905090810190601f16801561047c5780820380516001836020036101000a031916815260200191505b5094505050505060405180910390f35b34801561049857600080fd5b50610237600435610c65565b80516000106104b257600080fd5b600a5460ff1615156104c357600080fd5b600c54670de0b6b3a764000002341415156104dd57600080fd5b600b5433600090815260056020526040902060010154106104fd57600080fd5b61050633610c73565b1561058a57336000908152600560209081526040909120600181810155825161053192840190610d33565b5060048054600181019091557f8a35acfbc15ff81a39ae7d344fd709f28e8600b4aa8c65c6b64bfe7fe36bd19b81018054600160a060020a031916339081179091556000908152600560205260409020600201556105a6565b3360009081526005602052604090206001908101805490910190555b6006805460018181019092557ff652222313e28459528d920b65115c16c04f3efc82aaedc97be59f3f377c0d3f018054600160a060020a031916339081179091556000908152600560209081526040918290208084015483519283018190528383528154600295811615610100026000190116949094049282018390527f76041b6e8130995874e79e751d284536c37242cb014fb0584ede1d1e64ce03c993909290919081906060820190859080156106a05780601f10610675576101008083540402835291602001916106a0565b820191906000526020600020905b81548152906001019060200180831161068357829003601f168201915b5050935050505060405180910390a150565b600a5460ff1681565b600154600090600160a060020a031633146106d557600080fd5b6006546000106106e457600080fd5b6006546106ef610cd1565b8115156106f857fe5b06905060068181548110151561070a57fe5b600091825260209091200154600354600160a060020a03909116906108fc906064908103303102049081150290604051600060405180830381858888f1935050505015801561075d573d6000803e3d6000fd5b50600154600354604051600160a060020a0390921691606430319092029190910480156108fc02916000818181858888f193505050501580156107a4573d6000803e3d6000fd5b50600560006006838154811015156107b857fe5b6000918252602080832090910154600160a060020a03168352820192909252604001902080546107fd9160079160026000196001831615610100020190911604610db1565b506005600060068381548110151561081157fe5b600091825260208083209190910154600160a060020a03168352828101939093526040918201812060010154600855815190815291820190819052905161085a91600691610e26565b50604080516000815260208101918290525161087891600491610e26565b50600a805460ff19169055600854604080516020810183905281815260078054600260001960018316156101000201909116049282018390527fd6d1eeba639254bd05e36261ae299af245328ab997fd9b7823d5fff17f1b74a493909290919081906060820190859080156106a05780601f10610675576101008083540402835291602001916106a0565b6000805460408051602060026001851615610100026000190190941693909304601f810184900484028201840190925281815292918301828280156109895780601f1061095e57610100808354040283529160200191610989565b820191906000526020600020905b81548152906001019060200180831161096c57829003601f168201915b505050505081565b6002805460408051602060018416156101000260001901909316849004601f810184900484028201840190925281815292918301828280156109895780601f1061095e57610100808354040283529160200191610989565b600154600160a060020a031681565b6004805482908110610a0657fe5b600091825260209091200154600160a060020a0316905081565b60606000610a2d83610c73565b15610a4957505060408051602081019091526000808252610afc565b600160a060020a03831660009081526005602090815260409182902060018082015482548551600293821615610100026000190190911692909204601f81018590048502830185019095528482529193919290918491830182828015610af05780601f10610ac557610100808354040283529160200191610af0565b820191906000526020600020905b815481529060010190602001808311610ad357829003601f168201915b50505050509150915091505b915091565b600c5481565b600b5481565b60606004805480602002602001604051908101604052809291908181526020018280548015610b6557602002820191906000526020600020905b8154600160a060020a03168152600190910190602001808311610b47575b505050505090505b90565b600154600160a060020a03163314610b8757600080fd5b600a805460ff191660011790558115610ba05781610ba3565b60015b600b558015610bb25780610bb5565b60015b600c555050565b303190565b60035481565b60078054604080516020601f60026000196101006001881615020190951694909404938401819004810282018101909252828152918391830182828015610c4f5780601f10610c2457610100808354040283529160200191610c4f565b820191906000526020600020905b815481529060010190602001808311610c3257829003601f168201915b5050505050908060010154908060020154905083565b6006805482908110610a0657fe5b6004546000901515610c8757506001610ccc565b600160a060020a038216600081815260056020526040902060020154600480549091908110610cb257fe5b600091825260209091200154600160a060020a0316141590505b919050565b600044426006604051808481526020018381526020018280548015610d1f57602002820191906000526020600020905b8154600160a060020a03168152600190910190602001808311610d01575b505060405190819003902094505050505090565b828054600181600116156101000203166002900490600052602060002090601f016020900481019282601f10610d7457805160ff1916838001178555610da1565b82800160010185558215610da1579182015b82811115610da1578251825591602001919060010190610d86565b50610dad929150610e87565b5090565b828054600181600116156101000203166002900490600052602060002090601f016020900481019282601f10610dea5780548555610da1565b82800160010185558215610da157600052602060002091601f016020900482015b82811115610da1578254825591600101919060010190610e0b565b828054828255906000526020600020908101928215610e7b579160200282015b82811115610e7b5782518254600160a060020a031916600160a060020a03909116178255602090920191600190910190610e46565b50610dad929150610ea1565b610b6d91905b80821115610dad5760008155600101610e8d565b610b6d91905b80821115610dad578054600160a060020a0319168155600101610ea75600a165627a7a72305820c6fbe6663db62bfb2951c4fea0a263795e3eb5d19db41f8016fb9aa7f8decb5e0029a165627a7a723058203a3f603419c7c0e51e11a6f3ff5f26dd5840f2a4dc16ffc8043a1618778000920029",
  "linkReferences": {},
  "deployedLinkReferences": {}
}