{
  "_format": "hh-sol-artifact-1",
  "contractName": "Lottery",
  "sourceName": "contracts/Lottery.sol",
  "abi": [
    {
      "constant": true,
      "inputs": [],
      "name": "isLotteryLive",
      "outputs": [
        {
          "name": "",
          "type": "bool"
        }
      ],
      "payable": false,
      "stateMutability": "view",
      "type": "function"
    },
    {
      "constant": false,
      "inputs": [],
      "name": "declareWinner",
      "outputs": [],
      "payable": false,
      "stateMutability": "nonpayable",
      "type": "function"
    },
    {
      "constant": false,
      "inputs": [
        {
          "name": "playerName",
          "type": "string"
        }
      ],
      "name": "participate",
      "outputs": [],
      "payable": true,
      "stateMutability": "payable",
      "type": "function"
    },
    {
      "constant": true,
      "inputs": [],
      "name": "lotteryName",
      "outputs": [
        {
          "name": "",
          "type": "string"
        }
      ],
      "payable": false,
      "stateMutability": "view",
      "type": "function"
    },
    {
      "constant": true,
      "inputs": [],
      "name": "manager",
      "outputs": [
        {
          "name": "",
          "type": "address"
        }
      ],
      "payable": false,
      "stateMutability": "view",
      "type": "function"
    },
    {
      "constant": true,
      "inputs": [
        {
          "name": "",
          "type": "uint256"
        }
      ],
      "name": "addressIndexes",
      "outputs": [
        {
          "name": "",
          "type": "address"
        }
      ],
      "payable": false,
      "stateMutability": "view",
      "type": "function"
    },
    {
      "constant": true,
      "inputs": [
        {
          "name": "playerAddress",
          "type": "address"
        }
      ],
      "name": "getPlayer",
      "outputs": [
        {
          "name": "",
          "type": "string"
        },
        {
          "name": "",
          "type": "uint256"
        }
      ],
      "payable": false,
      "stateMutability": "view",
      "type": "function"
    },
    {
      "constant": true,
      "inputs": [],
      "name": "endAt",
      "outputs": [
        {
          "name": "",
          "type": "string"
        }
      ],
      "payable": false,
      "stateMutability": "view",
      "type": "function"
    },
    {
      "constant": true,
      "inputs": [],
      "name": "getPlayers",
      "outputs": [
        {
          "name": "",
          "type": "address[]"
        }
      ],
      "payable": false,
      "stateMutability": "view",
      "type": "function"
    },
    {
      "constant": false,
      "inputs": [
        {
          "name": "status",
          "type": "bool"
        }
      ],
      "name": "setLotteryStatus",
      "outputs": [],
      "payable": false,
      "stateMutability": "nonpayable",
      "type": "function"
    },
    {
      "constant": true,
      "inputs": [],
      "name": "coinsRequired",
      "outputs": [
        {
          "name": "",
          "type": "uint256"
        }
      ],
      "payable": false,
      "stateMutability": "view",
      "type": "function"
    },
    {
      "constant": true,
      "inputs": [],
      "name": "getWinningPrice",
      "outputs": [
        {
          "name": "",
          "type": "uint256"
        }
      ],
      "payable": false,
      "stateMutability": "view",
      "type": "function"
    },
    {
      "constant": true,
      "inputs": [],
      "name": "winner",
      "outputs": [
        {
          "name": "name",
          "type": "string"
        },
        {
          "name": "entryCount",
          "type": "uint256"
        },
        {
          "name": "index",
          "type": "uint256"
        }
      ],
      "payable": false,
      "stateMutability": "view",
      "type": "function"
    },
    {
      "constant": true,
      "inputs": [],
      "name": "creatorFee",
      "outputs": [
        {
          "name": "",
          "type": "uint256"
        }
      ],
      "payable": false,
      "stateMutability": "view",
      "type": "function"
    },
    {
      "constant": true,
      "inputs": [],
      "name": "maxEntries",
      "outputs": [
        {
          "name": "",
          "type": "uint256"
        }
      ],
      "payable": false,
      "stateMutability": "view",
      "type": "function"
    },
    {
      "constant": true,
      "inputs": [
        {
          "name": "",
          "type": "uint256"
        }
      ],
      "name": "lotteryBag",
      "outputs": [
        {
          "name": "",
          "type": "address"
        }
      ],
      "payable": false,
      "stateMutability": "view",
      "type": "function"
    },
    {
      "inputs": [
        {
          "name": "in_manager",
          "type": "address"
        },
        {
          "name": "in_lotteryName",
          "type": "string"
        },
        {
          "name": "in_endAt",
          "type": "string"
        },
        {
          "name": "in_creatorFee",
          "type": "uint256"
        },
        {
          "name": "in_maxEntries",
          "type": "uint256"
        },
        {
          "name": "in_coinsRequired",
          "type": "uint256"
        }
      ],
      "payable": false,
      "stateMutability": "nonpayable",
      "type": "constructor"
    },
    {
      "payable": true,
      "stateMutability": "payable",
      "type": "fallback"
    },
    {
      "anonymous": false,
      "inputs": [
        {
          "indexed": false,
          "name": "name",
          "type": "string"
        },
        {
          "indexed": false,
          "name": "entryCount",
          "type": "uint256"
        }
      ],
      "name": "WinnerDeclared",
      "type": "event"
    },
    {
      "anonymous": false,
      "inputs": [
        {
          "indexed": false,
          "name": "name",
          "type": "string"
        },
        {
          "indexed": false,
          "name": "entryCount",
          "type": "uint256"
        }
      ],
      "name": "PlayerParticipated",
      "type": "event"
    }
  ],
  "bytecode": "0x608060405234801561001057600080fd5b506040516200100a3803806200100a8339810160409081528151602080840151928401516060850151608086015160a087015160008054600160a060020a031916600160a060020a038816179055958701805195979096930194919390929161007f91600191908801906100b5565b5083516100939060029060208701906100b5565b506003929092556004556005555050600c805460ff1916600117905550610150565b828054600181600116156101000203166002900490600052602060002090601f016020900481019282601f106100f657805160ff1916838001178555610123565b82800160010185558215610123579182015b82811115610123578251825591602001919060010190610108565b5061012f929150610133565b5090565b61014d91905b8082111561012f5760008155600101610139565b90565b610eaa80620001606000396000f3006080604052600436106100cc5763ffffffff60e060020a60003504166310c85fe581146100f957806314034bd2146101225780631d27769f1461013757806323d1414914610183578063481c6a751461020d5780635832d5711461023e5780635c12cd4b146102565780637cc3ae8c146102f65780638b5b9ccc1461030b578063a341c7f214610370578063d29b84e21461038a578063d68895d8146103b1578063dfbf53ae146103c6578063e88958dc14610461578063f23f3ba514610476578063f25266dd1461048b575b6100f760408051908101604052806007815260200160c960020a662ab735b737bbb7028152506104a3565b005b34801561010557600080fd5b5061010e6106a5565b604080519115158252519081900360200190f35b34801561012e57600080fd5b506100f76106ae565b6040805160206004803580820135601f81018490048402850184019095528484526100f79436949293602493928401919081908401838280828437509497506104a39650505050505050565b34801561018f57600080fd5b506101986108f6565b6040805160208082528351818301528351919283929083019185019080838360005b838110156101d25781810151838201526020016101ba565b50505050905090810190601f1680156101ff5780820380516001836020036101000a031916815260200191505b509250505060405180910390f35b34801561021957600080fd5b50610222610983565b60408051600160a060020a039092168252519081900360200190f35b34801561024a57600080fd5b50610222600435610992565b34801561026257600080fd5b50610277600160a060020a03600435166109ba565b6040518080602001838152602001828103825284818151815260200191508051906020019080838360005b838110156102ba5781810151838201526020016102a2565b50505050905090810190601f1680156102e75780820380516001836020036101000a031916815260200191505b50935050505060405180910390f35b34801561030257600080fd5b50610198610a9b565b34801561031757600080fd5b50610320610af3565b60408051602080825283518183015283519192839290830191858101910280838360005b8381101561035c578181015183820152602001610344565b505050509050019250505060405180910390f35b34801561037c57600080fd5b506100f76004351515610b56565b34801561039657600080fd5b5061039f610b69565b60408051918252519081900360200190f35b3480156103bd57600080fd5b5061039f610b6f565b3480156103d257600080fd5b506103db610b74565b6040518080602001848152602001838152602001828103825285818151815260200191508051906020019080838360005b8381101561042457818101518382015260200161040c565b50505050905090810190601f1680156104515780820380516001836020036101000a031916815260200191505b5094505050505060405180910390f35b34801561046d57600080fd5b5061039f610c12565b34801561048257600080fd5b5061039f610c18565b34801561049757600080fd5b50610222600435610c1e565b80516000106104b157600080fd5b600c5460ff1615156104c257600080fd5b60055434146104d057600080fd5b60045433600090815260076020526040902060010154106104f057600080fd5b6104f933610c2c565b1561057d57336000908152600760209081526040909120600181810155825161052492840190610cec565b5060068054600181019091557ff652222313e28459528d920b65115c16c04f3efc82aaedc97be59f3f377c0d3f81018054600160a060020a03191633908117909155600090815260076020526040902060020155610599565b3360009081526007602052604090206001908101805490910190555b6008805460018181019092557ff3f7a9fe364faab93b216da50a3214154f22a0a2b415b23a84c8169e8b636ee3018054600160a060020a031916339081179091556000908152600760209081526040918290208084015483519283018190528383528154600295811615610100026000190116949094049282018390527f76041b6e8130995874e79e751d284536c37242cb014fb0584ede1d1e64ce03c993909290919081906060820190859080156106935780601f1061066857610100808354040283529160200191610693565b820191906000526020600020905b81548152906001019060200180831161067657829003601f168201915b5050935050505060405180910390a150565b600c5460ff1681565b60008054600160a060020a031633146106c657600080fd5b6008546000106106d557600080fd5b6008546106e0610c8a565b8115156106e957fe5b0690506008818154811015156106fb57fe5b600091825260209091200154600354600160a060020a03909116906108fc906064908103303102049081150290604051600060405180830381858888f1935050505015801561074e573d6000803e3d6000fd5b50600054600354600160a060020a03909116906108fc90606490303102049081150290604051600060405180830381858888f19350505050158015610797573d6000803e3d6000fd5b50600760006008838154811015156107ab57fe5b6000918252602080832090910154600160a060020a03168352820192909252604001902080546107f09160099160026000196001831615610100020190911604610d6a565b506007600060088381548110151561080457fe5b600091825260208083209190910154600160a060020a03168352828101939093526040918201812060010154600a55815190815291820190819052905161084d91600891610ddf565b50604080516000815260208101918290525161086b91600691610ddf565b50600c805460ff19169055600a54604080516020810183905281815260098054600260001960018316156101000201909116049282018390527fd6d1eeba639254bd05e36261ae299af245328ab997fd9b7823d5fff17f1b74a493909290919081906060820190859080156106935780601f1061066857610100808354040283529160200191610693565b60018054604080516020600284861615610100026000190190941693909304601f8101849004840282018401909252818152929183018282801561097b5780601f106109505761010080835404028352916020019161097b565b820191906000526020600020905b81548152906001019060200180831161095e57829003601f168201915b505050505081565b600054600160a060020a031681565b60068054829081106109a057fe5b600091825260209091200154600160a060020a0316905081565b606060006109c783610c2c565b156109e357505060408051602081019091526000808252610a96565b600160a060020a03831660009081526007602090815260409182902060018082015482548551600293821615610100026000190190911692909204601f81018590048502830185019095528482529193919290918491830182828015610a8a5780601f10610a5f57610100808354040283529160200191610a8a565b820191906000526020600020905b815481529060010190602001808311610a6d57829003601f168201915b50505050509150915091505b915091565b6002805460408051602060018416156101000260001901909316849004601f8101849004840282018401909252818152929183018282801561097b5780601f106109505761010080835404028352916020019161097b565b60606006805480602002602001604051908101604052809291908181526020018280548015610b4b57602002820191906000526020600020905b8154600160a060020a03168152600190910190602001808311610b2d575b505050505090505b90565b600c805460ff1916911515919091179055565b60055481565b303190565b60098054604080516020601f60026000196101006001881615020190951694909404938401819004810282018101909252828152918391830182828015610bfc5780601f10610bd157610100808354040283529160200191610bfc565b820191906000526020600020905b815481529060010190602001808311610bdf57829003601f168201915b5050505050908060010154908060020154905083565b60035481565b60045481565b60088054829081106109a057fe5b6006546000901515610c4057506001610c85565b600160a060020a038216600081815260076020526040902060020154600680549091908110610c6b57fe5b600091825260209091200154600160a060020a0316141590505b919050565b600044426008604051808481526020018381526020018280548015610cd857602002820191906000526020600020905b8154600160a060020a03168152600190910190602001808311610cba575b505060405190819003902094505050505090565b828054600181600116156101000203166002900490600052602060002090601f016020900481019282601f10610d2d57805160ff1916838001178555610d5a565b82800160010185558215610d5a579182015b82811115610d5a578251825591602001919060010190610d3f565b50610d66929150610e40565b5090565b828054600181600116156101000203166002900490600052602060002090601f016020900481019282601f10610da35780548555610d5a565b82800160010185558215610d5a57600052602060002091601f016020900482015b82811115610d5a578254825591600101919060010190610dc4565b828054828255906000526020600020908101928215610e34579160200282015b82811115610e345782518254600160a060020a031916600160a060020a03909116178255602090920191600190910190610dff565b50610d66929150610e5a565b610b5391905b80821115610d665760008155600101610e46565b610b5391905b80821115610d66578054600160a060020a0319168155600101610e605600a165627a7a723058209aa207ae7b23e700d9cf0cd1e77c57f3285b60527c508462ed154f7b0cab4afa0029",
  "linkReferences": {},
  "deployedLinkReferences": {}
}