{
  "_format": "hh-sol-artifact-1",
  "contractName": "Lottery",
  "sourceName": "contracts/Lottery.sol",
  "abi": [
    {
      "constant": true,
      "inputs": [],
      "name": "isLotteryLive",
      "outputs": [
        {
          "name": "",
          "type": "bool"
        }
      ],
      "payable": false,
      "stateMutability": "view",
      "type": "function"
    },
    {
      "constant": false,
      "inputs": [
        {
          "name": "maxEntries",
          "type": "uint256"
        },
        {
          "name": "ethRequired",
          "type": "uint256"
        },
        {
          "name": "iswei",
          "type": "bool"
        }
      ],
      "name": "activateLottery",
      "outputs": [],
      "payable": false,
      "stateMutability": "nonpayable",
      "type": "function"
    },
    {
      "constant": false,
      "inputs": [],
      "name": "declareWinner",
      "outputs": [],
      "payable": false,
      "stateMutability": "nonpayable",
      "type": "function"
    },
    {
      "constant": false,
      "inputs": [
        {
          "name": "playerName",
          "type": "string"
        }
      ],
      "name": "participate",
      "outputs": [],
      "payable": true,
      "stateMutability": "payable",
      "type": "function"
    },
    {
      "constant": true,
      "inputs": [],
      "name": "lotteryName",
      "outputs": [
        {
          "name": "",
          "type": "string"
        }
      ],
      "payable": false,
      "stateMutability": "view",
      "type": "function"
    },
    {
      "constant": true,
      "inputs": [],
      "name": "deadline",
      "outputs": [
        {
          "name": "",
          "type": "string"
        }
      ],
      "payable": false,
      "stateMutability": "view",
      "type": "function"
    },
    {
      "constant": true,
      "inputs": [],
      "name": "manager",
      "outputs": [
        {
          "name": "",
          "type": "address"
        }
      ],
      "payable": false,
      "stateMutability": "view",
      "type": "function"
    },
    {
      "constant": true,
      "inputs": [
        {
          "name": "",
          "type": "uint256"
        }
      ],
      "name": "addressIndexes",
      "outputs": [
        {
          "name": "",
          "type": "address"
        }
      ],
      "payable": false,
      "stateMutability": "view",
      "type": "function"
    },
    {
      "constant": true,
      "inputs": [
        {
          "name": "playerAddress",
          "type": "address"
        }
      ],
      "name": "getPlayer",
      "outputs": [
        {
          "name": "",
          "type": "string"
        },
        {
          "name": "",
          "type": "uint256"
        }
      ],
      "payable": false,
      "stateMutability": "view",
      "type": "function"
    },
    {
      "constant": true,
      "inputs": [],
      "name": "ethToParticipate",
      "outputs": [
        {
          "name": "",
          "type": "uint256"
        }
      ],
      "payable": false,
      "stateMutability": "view",
      "type": "function"
    },
    {
      "constant": true,
      "inputs": [],
      "name": "maxEntriesForPlayer",
      "outputs": [
        {
          "name": "",
          "type": "uint256"
        }
      ],
      "payable": false,
      "stateMutability": "view",
      "type": "function"
    },
    {
      "constant": true,
      "inputs": [],
      "name": "isWei",
      "outputs": [
        {
          "name": "",
          "type": "bool"
        }
      ],
      "payable": false,
      "stateMutability": "view",
      "type": "function"
    },
    {
      "constant": true,
      "inputs": [],
      "name": "getPlayers",
      "outputs": [
        {
          "name": "",
          "type": "address[]"
        }
      ],
      "payable": false,
      "stateMutability": "view",
      "type": "function"
    },
    {
      "constant": true,
      "inputs": [],
      "name": "getWinningPrice",
      "outputs": [
        {
          "name": "",
          "type": "uint256"
        }
      ],
      "payable": false,
      "stateMutability": "view",
      "type": "function"
    },
    {
      "constant": true,
      "inputs": [],
      "name": "fee",
      "outputs": [
        {
          "name": "",
          "type": "uint256"
        }
      ],
      "payable": false,
      "stateMutability": "view",
      "type": "function"
    },
    {
      "constant": true,
      "inputs": [],
      "name": "winner",
      "outputs": [
        {
          "name": "name",
          "type": "string"
        },
        {
          "name": "entryCount",
          "type": "uint256"
        },
        {
          "name": "index",
          "type": "uint256"
        }
      ],
      "payable": false,
      "stateMutability": "view",
      "type": "function"
    },
    {
      "constant": true,
      "inputs": [
        {
          "name": "",
          "type": "uint256"
        }
      ],
      "name": "lotteryBag",
      "outputs": [
        {
          "name": "",
          "type": "address"
        }
      ],
      "payable": false,
      "stateMutability": "view",
      "type": "function"
    },
    {
      "inputs": [
        {
          "name": "name",
          "type": "string"
        },
        {
          "name": "creator",
          "type": "address"
        },
        {
          "name": "endAt",
          "type": "string"
        },
        {
          "name": "creatorFee",
          "type": "uint256"
        }
      ],
      "payable": false,
      "stateMutability": "nonpayable",
      "type": "constructor"
    },
    {
      "payable": true,
      "stateMutability": "payable",
      "type": "fallback"
    },
    {
      "anonymous": false,
      "inputs": [
        {
          "indexed": false,
          "name": "name",
          "type": "string"
        },
        {
          "indexed": false,
          "name": "entryCount",
          "type": "uint256"
        }
      ],
      "name": "WinnerDeclared",
      "type": "event"
    },
    {
      "anonymous": false,
      "inputs": [
        {
          "indexed": false,
          "name": "name",
          "type": "string"
        },
        {
          "indexed": false,
          "name": "entryCount",
          "type": "uint256"
        }
      ],
      "name": "PlayerParticipated",
      "type": "event"
    }
  ],
  "bytecode": "0x608060405234801561001057600080fd5b506040516200106f3803806200106f833981016040908152815160208084015192840151606085015160018054600160a060020a031916600160a060020a0387161790559285018051909591909101929161007091600091870190610091565b508151610084906002906020850190610091565b506003555061012c915050565b828054600181600116156101000203166002900490600052602060002090601f016020900481019282601f106100d257805160ff19168380011785556100ff565b828001600101855582156100ff579182015b828111156100ff5782518255916020019190600101906100e4565b5061010b92915061010f565b5090565b61012991905b8082111561010b5760008155600101610115565b90565b610f33806200013c6000396000f3006080604052600436106100d75763ffffffff60e060020a60003504166310c85fe58114610104578063138084c91461012d57806314034bd21461014d5780631d27769f1461016257806323d14149146101ae57806329dcb0cf14610238578063481c6a751461024d5780635832d5711461027e5780635c12cd4b146102965780635d58a74a146103365780637752045b1461035d5780638002d933146103725780638b5b9ccc14610387578063d68895d8146103ec578063ddca3f4314610401578063dfbf53ae14610416578063f25266dd146104b1575b61010260408051908101604052806007815260200160c960020a662ab735b737bbb7028152506104c9565b005b34801561011057600080fd5b506101196106f5565b604080519115158252519081900360200190f35b34801561013957600080fd5b5061010260043560243560443515156106fe565b34801561015957600080fd5b50610102610740565b6040805160206004803580820135601f81018490048402850184019095528484526101029436949293602493928401919081908401838280828437509497506104c99650505050505050565b3480156101ba57600080fd5b506101c3610988565b6040805160208082528351818301528351919283929083019185019080838360005b838110156101fd5781810151838201526020016101e5565b50505050905090810190601f16801561022a5780820380516001836020036101000a031916815260200191505b509250505060405180910390f35b34801561024457600080fd5b506101c3610a16565b34801561025957600080fd5b50610262610a6e565b60408051600160a060020a039092168252519081900360200190f35b34801561028a57600080fd5b50610262600435610a7d565b3480156102a257600080fd5b506102b7600160a060020a0360043516610aa5565b6040518080602001838152602001828103825284818151815260200191508051906020019080838360005b838110156102fa5781810151838201526020016102e2565b50505050905090810190601f1680156103275780820380516001836020036101000a031916815260200191505b50935050505060405180910390f35b34801561034257600080fd5b5061034b610b86565b60408051918252519081900360200190f35b34801561036957600080fd5b5061034b610b8c565b34801561037e57600080fd5b50610119610b92565b34801561039357600080fd5b5061039c610b9b565b60408051602080825283518183015283519192839290830191858101910280838360005b838110156103d85781810151838201526020016103c0565b505050509050019250505060405180910390f35b3480156103f857600080fd5b5061034b610bfe565b34801561040d57600080fd5b5061034b610c03565b34801561042257600080fd5b5061042b610c09565b6040518080602001848152602001838152602001828103825285818151815260200191508051906020019080838360005b8381101561047457818101518382015260200161045c565b50505050905090810190601f1680156104a15780820380516001836020036101000a031916815260200191505b5094505050505060405180910390f35b3480156104bd57600080fd5b50610262600435610ca7565b80516000106104d757600080fd5b600a5460ff1615156104e857600080fd5b600d5460ff161561051257600c54670de0b6b3a7640000023414151561050d57600080fd5b610520565b600c54341461052057600080fd5b600b54336000908152600560205260409020600101541061054057600080fd5b61054933610cb5565b156105cd57336000908152600560209081526040909120600181810155825161057492840190610d75565b5060048054600181019091557f8a35acfbc15ff81a39ae7d344fd709f28e8600b4aa8c65c6b64bfe7fe36bd19b81018054600160a060020a031916339081179091556000908152600560205260409020600201556105e9565b3360009081526005602052604090206001908101805490910190555b6006805460018181019092557ff652222313e28459528d920b65115c16c04f3efc82aaedc97be59f3f377c0d3f018054600160a060020a031916339081179091556000908152600560209081526040918290208084015483519283018190528383528154600295811615610100026000190116949094049282018390527f76041b6e8130995874e79e751d284536c37242cb014fb0584ede1d1e64ce03c993909290919081906060820190859080156106e35780601f106106b8576101008083540402835291602001916106e3565b820191906000526020600020905b8154815290600101906020018083116106c657829003601f168201915b5050935050505060405180910390a150565b600a5460ff1681565b600154600160a060020a0316331461071557600080fd5b600a8054600160ff1991821617909155600b93909355600c91909155600d8054909216901515179055565b600154600090600160a060020a0316331461075a57600080fd5b60065460001061076957600080fd5b600654610774610d13565b81151561077d57fe5b06905060068181548110151561078f57fe5b600091825260209091200154600354600160a060020a03909116906108fc906064908103303102049081150290604051600060405180830381858888f193505050501580156107e2573d6000803e3d6000fd5b50600154600354604051600160a060020a0390921691606430319092029190910480156108fc02916000818181858888f19350505050158015610829573d6000803e3d6000fd5b506005600060068381548110151561083d57fe5b6000918252602080832090910154600160a060020a03168352820192909252604001902080546108829160079160026000196001831615610100020190911604610df3565b506005600060068381548110151561089657fe5b600091825260208083209190910154600160a060020a0316835282810193909352604091820181206001015460085581519081529182019081905290516108df91600691610e68565b5060408051600081526020810191829052516108fd91600491610e68565b50600a805460ff19169055600854604080516020810183905281815260078054600260001960018316156101000201909116049282018390527fd6d1eeba639254bd05e36261ae299af245328ab997fd9b7823d5fff17f1b74a493909290919081906060820190859080156106e35780601f106106b8576101008083540402835291602001916106e3565b6000805460408051602060026001851615610100026000190190941693909304601f81018490048402820184019092528181529291830182828015610a0e5780601f106109e357610100808354040283529160200191610a0e565b820191906000526020600020905b8154815290600101906020018083116109f157829003601f168201915b505050505081565b6002805460408051602060018416156101000260001901909316849004601f81018490048402820184019092528181529291830182828015610a0e5780601f106109e357610100808354040283529160200191610a0e565b600154600160a060020a031681565b6004805482908110610a8b57fe5b600091825260209091200154600160a060020a0316905081565b60606000610ab283610cb5565b15610ace57505060408051602081019091526000808252610b81565b600160a060020a03831660009081526005602090815260409182902060018082015482548551600293821615610100026000190190911692909204601f81018590048502830185019095528482529193919290918491830182828015610b755780601f10610b4a57610100808354040283529160200191610b75565b820191906000526020600020905b815481529060010190602001808311610b5857829003601f168201915b50505050509150915091505b915091565b600c5481565b600b5481565b600d5460ff1681565b60606004805480602002602001604051908101604052809291908181526020018280548015610bf357602002820191906000526020600020905b8154600160a060020a03168152600190910190602001808311610bd5575b505050505090505b90565b303190565b60035481565b60078054604080516020601f60026000196101006001881615020190951694909404938401819004810282018101909252828152918391830182828015610c915780601f10610c6657610100808354040283529160200191610c91565b820191906000526020600020905b815481529060010190602001808311610c7457829003601f168201915b5050505050908060010154908060020154905083565b6006805482908110610a8b57fe5b6004546000901515610cc957506001610d0e565b600160a060020a038216600081815260056020526040902060020154600480549091908110610cf457fe5b600091825260209091200154600160a060020a0316141590505b919050565b600044426006604051808481526020018381526020018280548015610d6157602002820191906000526020600020905b8154600160a060020a03168152600190910190602001808311610d43575b505060405190819003902094505050505090565b828054600181600116156101000203166002900490600052602060002090601f016020900481019282601f10610db657805160ff1916838001178555610de3565b82800160010185558215610de3579182015b82811115610de3578251825591602001919060010190610dc8565b50610def929150610ec9565b5090565b828054600181600116156101000203166002900490600052602060002090601f016020900481019282601f10610e2c5780548555610de3565b82800160010185558215610de357600052602060002091601f016020900482015b82811115610de3578254825591600101919060010190610e4d565b828054828255906000526020600020908101928215610ebd579160200282015b82811115610ebd5782518254600160a060020a031916600160a060020a03909116178255602090920191600190910190610e88565b50610def929150610ee3565b610bfb91905b80821115610def5760008155600101610ecf565b610bfb91905b80821115610def578054600160a060020a0319168155600101610ee95600a165627a7a72305820325c70eaf3f30199a73e915231abeaa69d099e24ffe2bc6c4df326dfb064aa3f0029",
  "linkReferences": {},
  "deployedLinkReferences": {}
}